:020000040000FA
:0400000037EF00F0E6
:100008004F82E1CF0DF0E2CF0EF0D9CF0FF0DACF6B
:1000180010F09DAA12EF00F014EF00F01DEF00F0B1
:100028009EAA19EF00F01BEF00F01DEF00F0BAECEC
:1000380018F09DA822EF00F024EF00F02DEF00F05B
:100048009EA829EF00F02BEF00F02DEF00F070ECE8
:1000580018F010C0DAFF0FC0D9FF0EC0E2FF0DC0C4
:0A006800E1FF4F92110091EF18F034
:101000000027204920686F706520796F75206C6912
:101010006B652074686973206F6E653A00652062A5
:10102000756E6775206368756E6775206A75656E85
:10103000676520686500676F74206368617261632B
:101040007465723A202700001450800B1D6E1450F6
:1010500014241F6E13AE2FEF08F031EF08F032EFBB
:1010600008F01F801F50D8B438EF08F03AEF08F0AE
:101070004FEF08F01F28D8A440EF08F042EF08F027
:101080004AEF08F0000E116E000E126E000E136E85
:10109000000E146E138E000E146E57EF08F0000E43
:1010A000116E000E126E000E136E000E146E1850AC
:1010B000800B1E6E1D501E18D8B461EF08F063EF50
:1010C00008F064EF08F01D8C185018241E6E17AE3F
:1010D0006CEF08F06EEF08F06FEF08F01E801E5006
:1010E000D8B475EF08F077EF08F08CEF08F01E2801
:1010F000D8A47DEF08F07FEF08F087EF08F0000E2E
:10110000156E000E166E000E176E000E186E178EFE
:10111000000E186E94EF08F0000E156E000E166E9D
:10112000000E176E000E186E1F501E5CD8B09BEF9D
:1011300008F09DEF08F0C4EF08F01DACA2EF08F036
:10114000A4EF08F0A6EF08F0800E1D1A1FC020F0D3
:101150001EC01FF020C01EF011C020F015C011F0FD
:1011600020C015F012C020F016C012F020C016F0FA
:1011700013C020F017C013F020C017F014C020F0E7
:1011800018C014F020C018F0000E206E1F501EC0B2
:1011900019F01A6A195E000E1A5A1ABED9EF08F031
:1011A0001A5009E11A0E195CD8A0D9EF08F0DBEF4C
:1011B00008F012EF09F01150121013101410D8A4F7
:1011C000E4EF08F0E7EF08F0010EE8EF08F0000E9A
:1011D000206E000E116E000E126E000E136E000EC9
:1011E000146E1EC01FF01BEF09F020A0FAEF08F0EC
:1011F000FCEF08F002EF09F0D89020300109206ED2
:1012000004EF09F0D890203211A009EF09F00BEF9C
:1012100009F00CEF09F0208E14341432133212321C
:1012200011321F2A1E501F5CD8A019EF09F01BEFC6
:1012300009F0F5EF08F01DBC20EF09F022EF09F0EE
:1012400062EF09F01F50D8A428EF09F02AEF09F047
:1012500034EF09F0000E116E000E126E000E136EC8
:10126000000E146E83EF0AF015501126165012224C
:10127000175013221850142214A041EF09F043EF25
:1012800009F0EFEF09F020A048EF09F04AEF09F06C
:1012900050EF09F0D89020300109206E52EF09F08C
:1012A000D890203211A057EF09F059EF09F05AEF0A
:1012B00009F0208E143414321332123211321F2AE4
:1012C000EFEF09F01550115C1650125817501358D3
:1012D0001450800A196E1850800A1958D8B073EF4C
:1012E00009F075EF09F0A0EF09F01150155C196EC7
:1012F000125016581A6E135017581B6E1450185867
:101300001C6EFF0E1924116EFF0E1A20126EFF0EB6
:101310001B20136EFF0E1C20146E800E1D1A206CF5
:101320002050D8A496EF09F098EF09F0A8EF09F043
:10133000010E1126000E122213221422A8EF09F02A
:101340001550115E1650125A1750135A1850145A4D
:101350001150121013101410D8A4B1EF09F0B3EF0C
:1013600009F0E8EF09F02050D8A4B9EF09F0BBEF7D
:1013700009F0E8EF09F0000E116E000E126E000E7B
:10138000136E000E146E83EF0AF0D89011361236E9
:101390001336143620AECFEF09F0D1EF09F0D2EFBB
:1013A00009F0118020A0D7EF09F0D9EF09F0DDEFA7
:1013B00009F0D8802036DFEF09F0D89020361F5092
:1013C000D8B4E5EF09F0E7EF09F0E8EF09F01F0600
:1013D00013AEEDEF09F0EFEF09F0C5EF09F0000EE5
:1013E0001E6E20AEF6EF09F0F8EF09F010EF0AF0EC
:1013F00020C019F07F0E1916D8B401EF0AF003EFE0
:101400000AF007EF0AF0010E1E6E10EF0AF011A0AD
:101410000CEF0AF00EEF0AF010EF0AF003EF0AF0FB
:101420001E50D8B416EF0AF018EF0AF043EF0AF096
:10143000010E1126000E12221322142214A023EFF3
:101440000AF025EF0AF043EF0AF011C019F012C0BC
:101450001AF013C01BF014C01CF01C341C321B32D9
:101460001A32193219C011F01AC012F01BC013F051
:101470001CC014F01F28D8B440EF0AF042EF0AF065
:1014800043EF0AF01F2A1F28D8B449EF0AF04BEFA8
:101490000AF053EF0AF01F50D8A451EF0AF053EFAF
:1014A0000AF065EF0AF0000E116E000E126E000ECB
:1014B000136E000E146E1F50D8A461EF0AF063EF94
:1014C0000AF065EF0AF0000E1D6E1FA06AEF0AF029
:1014D0006CEF0AF06FEF0AF0138E70EF0AF0139EB4
:1014E000D8901F30146E1DAE78EF0AF07AEF0AF034
:1014F0007BEF0AF0148E11C011F012C012F013C06D
:1015000013F014C014F012001450800B1D6E145010
:101510001424236E13AE8FEF0AF091EF0AF092EFCE
:101520000AF023802350D8B498EF0AF09AEF0AF01B
:10153000ADEF0AF02328D8A4A0EF0AF0A2EF0AF03A
:10154000AAEF0AF0000E116E000E126E000E136E5E
:10155000000E146E138EB5EF0AF0000E116E000E21
:10156000126E000E136E000E146E1850800B1D1AB2
:10157000185018241E6E17AEC0EF0AF0C2EF0AF022
:10158000C3EF0AF01E801E50D8B4C9EF0AF0CBEFAB
:101590000AF0DEEF0AF01E28D8A4D1EF0AF0D3EF4C
:1015A0000AF0DBEF0AF0000E156E000E166E000E4C
:1015B000176E000E186E178EE6EF0AF0000E156E0D
:1015C000000E166E000E176E000E186E1E50D8B468
:1015D000ECEF0AF0EEEF0AF0F6EF0AF02350D8A491
:1015E000F4EF0AF0F6EF0AF000EF0BF0000E116EC8
:1015F000000E126E000E136E000E146E98EF0CF0BB
:1016000017501102F3CF28F0F4CF29F028501F6EA5
:10161000206A216A226A2950246E256A266A276A6E
:1016200016501202F3CF28F0F4CF29F028501F26CD
:10163000000E20222122222229502426000E2522BB
:101640002622272215501302F3CF28F0F4CF29F0D9
:1016500028501F26000E2022212222222950242633
:10166000000E25222622272221C022F020C021F0B0
:101670001FC020F01F6A15501202F3CF28F0F4CFDC
:1016800029F028501F2629502022000E2122000E6A
:10169000222216501102F3CF28F0F4CF29F028505F
:1016A0001F2629502022000E2122000E222221C0B6
:1016B00022F020C021F01FC020F01F6A1550110237
:1016C000F3CF28F0F4CF29F028501F2629502022EC
:1016D000000E2122000E222217501202F3CF28F012
:1016E000F4CF29F02850242629502522000E262246
:1016F000000E272216501302F3CF28F0F4CF29F062
:101700002850242629502522000E2622000E2722AA
:1017100017501302F3CF28F0F4CF29F02850196E98
:1017200029501A6E1B6A1C6A1BC01CF01AC01BF0E1
:1017300019C01AF0196A195024261A5025221B5074
:1017400026221C5027221FC019F020C01AF021C0E9
:101750001BF022C01CF0190EB3EF0BF0D8901C3216
:101760001B321A321932E82EAEEF0BF01950242634
:101770001A5025221B5026221C50272221C022F05D
:1017800020C021F01FC020F01F6A1E5023C019F096
:101790001A6A1926000E1A22820E1924286EFF0ECC
:1017A0001A20296EE9EF0BF0D8902436253626361C
:1017B000273622AEDEEF0BF0E0EF0BF0E1EF0BF09F
:1017C0002480D8901F362036213622362806D8A00D
:1017D000290626AEEEEF0BF0F0EF0BF0D4EF0BF096
:1017E000000E1E6E22AEF7EF0BF0F9EF0BF01DEFBF
:1017F0000CF0FF0E1F14196EFF0E20141A6EFF0E50
:1018000021141B6E7F0E22141C6E19501A101B100F
:101810001C10D8B40EEF0CF010EF0CF014EF0CF01D
:10182000010E1E6E1DEF0CF024A019EF0CF01BEF43
:101830000CF01DEF0CF010EF0CF01E50D8B423EF9D
:101840000CF025EF0CF049EF0CF0010E2426000EF1
:1018500025222622272227A030EF0CF032EF0CF0B1
:1018600049EF0CF024C019F025C01AF026C01BF077
:1018700027C01CF01C341C321B321A32193219C01A
:1018800024F01AC025F01BC026F01CC027F0284AFF
:10189000292A29BE54EF0CF0295008E12828D8A0A5
:1018A00054EF0CF056EF0CF060EF0CF0000E246ECD
:1018B000000E256E800E266E7F0E276E8EEF0CF0CA
:1018C00029BE6DEF0CF0295006E12804D8B06BEF6B
:1018D0000CF06DEF0CF079EF0CF0000E246E000EA2
:1018E000256E000E266E000E276E000E1D6E8EEF0A
:1018F0000CF028C023F0FF0E2416FF0E25167F0ED5
:101900002616000E271623A088EF0CF08AEF0CF0A5
:101910008BEF0CF0268ED8902330276E1D502712A7
:1019200024C011F025C012F026C013F027C014F017
:101930001200010E0001A46F000EA56F000EA66F2D
:10194000000EA76F2CBEA9EF0CF0A7EF0CF0F5EF7F
:101950000CF02D0EA8EC17F029C011F02AC012F0DF
:101960002BC013F02CC014F0FF0E156EFF0E166E78
:10197000FF0E176EFF0E186E41EC17F011C029F024
:1019800012C02AF013C02BF014C02CF0F5EF0CF0AD
:10199000A4C011F0A5C012F0A6C013F0A7C014F0A7
:1019A0000A0E156E000E166E000E176E000E186EE3
:1019B00041EC17F011C0A4F012C0A5F013C0A6F0BE
:1019C00014C0A7F0CA0E0001A5190BE19A0EA619C2
:1019D00008E13B0EA719A411D8A4F1EF0CF0F3EF26
:1019E0000CF0F5EF0CF067EF0DF029500001A45D4D
:1019F0002A50A5592B50A659A751800A2D6E2C505C
:101A0000800A2D58D8A007EF0DF009EF0DF0C8EFB0
:101A10000CF067EF0DF00A0E1F6E000E206E000E28
:101A2000216E000E226EA4C01BF0A5C01CF0A6C043
:101A30001DF0A7C01EF0DDEC12F01BC0A0F01CC012
:101A4000A1F01DC0A2F01EC0A3F0A4C015F0A5C057
:101A500016F0A6C017F0A7C018F029C011F02AC0D0
:101A600012F02BC013F02CC014F0E0EC14F011C0F5
:101A70001BF012C01CF013C01DF014C01EF0A0C05B
:101A80001FF0A1C020F0A2C021F0A3C022F0DDEC25
:101A900012F01B50300FA8EC17F0A4C01BF0A5C02B
:101AA0001CF0A6C01DF0A7C01EF00A0E1F6E000E8F
:101AB000206E000E216E000E226EDDEC12F01BC0B7
:101AC000A4F01CC0A5F01DC0A6F01EC0A7F0000128
:101AD000A7BF78EF0DF0A751A611A51107E1020EDF
:101AE000A45DD8B076EF0DF078EF0DF00BEF0DF0B0
:101AF0001200236E2350D8B480EF0DF082EF0DF06A
:101B0000A4EF0DF01EBE89EF0DF087EF0DF0A4EFEE
:101B10000DF01BC01FF01CC020F01DC021F01EC026
:101B200022F01F1E201E211E221E1F2A000E202210
:101B3000212222221FC025F020C026F021C027F03C
:101B400022C028F0ACEF0DF01BC025F01CC026F021
:101B50001DC027F01EC028F01B501C101D101E10A9
:101B6000D8A4B5EF0DF0B7EF0DF0C1EF0DF0000EFA
:101B70001B6E000E1C6E000E1D6E000E1E6E52EFD0
:101B80000EF0960E246ECBEF0DF0242AD89028325A
:101B9000273226322532000E25141F6E000E261421
:101BA000206E000E2714216EFE0E2814226E1F5088
:101BB000201021102210D8A4E0EF0DF0E2EF0DF07C
:101BC000C5EF0DF0F0EF0DF0242A010E2526000ED2
:101BD000262227222822D890283227322632253260
:101BE000000E25141F6E000E2614206E000E271402
:101BF000216EFF0E2814226E1F502010211022107B
:101C0000D8A405EF0EF007EF0EF0E4EF0DF00FEFA4
:101C10000EF02406D890253626362736283627BEDD
:101C200014EF0EF016EF0EF01EEF0EF0020E246011
:101C30001CEF0EF01EEF0EF009EF0EF024B023EFB4
:101C40000EF025EF0EF026EF0EF0279ED8902432EE
:101C500024C01FF0206A216A226A1FC022F0216A74
:101C6000206A1F6A1F502512205026122150271269
:101C7000225028122350D8B440EF0EF042EF0EF05D
:101C80004AEF0EF01EBE49EF0EF047EF0EF04AEF9E
:101C90000EF0288E25C01BF026C01CF027C01DF0BA
:101CA00028C01EF01200000E1A6EF2AE5AEF0EF0AF
:101CB0005CEF0EF05FEF0EF0010E1A6EF29E20EE5A
:101CC00003F01150D9261250DA22DF50D8A46BEF5E
:101CD0000EF06DEF0EF093EF0EF020EE04F01150C9
:101CE000D9261250DA22DF50146E156AFF0E166ED6
:101CF000FF0E176E20EE02F01150D9261250DA2294
:101D0000DF50186E196A16501826175019221450F1
:101D1000181809E115501918D8B491EF0EF093EF87
:101D20000EF0B9EF0EF020EE04F01150D92612504B
:101D3000DA22DF50146E156AFF0E166EFF0E176E54
:101D400020EE03F01150D9261250DA22DF50186E1F
:101D5000196A16501826175019221450181807E13E
:101D600015501918D8A4B7EF0EF0B9EF0EF0C5EF63
:101D70000EF01A50D8B4BFEF0EF0C1EF0EF0C2EF64
:101D80000EF0F28E000E0BEF0FF020EE04F011506B
:101D9000D9261250DA22DF50146E11C0D9FF12C0BA
:101DA000DAFFDECF15F0DDCF16F014501524D96E12
:101DB000000E1620DA6E13C0DFFF20EE04F0115083
:101DC000D9261250DA22DF2A20EE02F01150D9264D
:101DD0001250DA2210EE04F01150E1261250E222E5
:101DE000DE50E618D8A4F7EF0EF0F9EF0EF001EF91
:101DF0000FF020EE04F01150D9261250DA22000E16
:101E0000DF6E1A50D8B407EF0FF009EF0FF00AEFAA
:101E10000FF0F28E010E1200000E0A6EF2AE13EFFA
:101E20000FF015EF0FF018EF0FF0010E0A6EF29E93
:101E300020EE03F00150D9260250DA22DF50D8A458
:101E400024EF0FF026EF0FF04CEF0FF020EE04F030
:101E50000150D9260250DA22DF50046E056AFF0EC7
:101E6000066EFF0E076E20EE02F00150D9260250DA
:101E7000DA22DF50086E096A065008260750092248
:101E80000450081809E105500918D8B44AEF0FF0BA
:101E90004CEF0FF072EF0FF020EE04F00150D92656
:101EA0000250DA22DF50046E056AFF0E066EFF0E46
:101EB000076E20EE03F00150D9260250DA22DF50DF
:101EC000086E096A065008260750092204500818AF
:101ED00007E105500918D8A470EF0FF072EF0FF06A
:101EE0007DEF0FF00A50D8B478EF0FF07AEF0FF0D3
:101EF000C2EF0FF0F28EC2EF0FF020EE04F00150AF
:101F0000D9260250DA22DF50046E01C0D9FF02C088
:101F1000DAFFDECF05F0DDCF06F004500524D96EE0
:101F2000000E0620DA6E03C0DFFF20EE04F0015041
:101F3000D9260250DA22DF2A20EE02F00150D926FB
:101F40000250DA2210EE04F00150E1260250E222A3
:101F5000DE50E618D8A4AFEF0FF0B1EF0FF0B9EFF5
:101F60000FF020EE04F00150D9260250DA22000EC4
:101F7000DF6E0A50D8B4BFEF0FF0C1EF0FF0C2EF21
:101F80000FF0F28E1200000E336EA8C011F0A9C03F
:101F900012F0AAC013F0ABC014F063EC13F011C040
:101FA00029F012C02AF013C02BF014C02CF099ECC9
:101FB0000CF02E0EA8EC17F0A8C029F0A9C02AF04A
:101FC000AAC02BF0ABC02CF0A8C011F0A9C012F031
:101FD000AAC013F0ABC014F063EC13F011C01BF0F7
:101FE00012C01CF013C01DF014C01EF0010E79ECDD
:101FF0000DF01BC02DF01CC02EF01DC02FF01EC018
:1020000030F02CEC18F029C0A8F02AC0A9F02BC0A1
:10201000AAF02CC0ABF00001ABBF13EF10F011EF32
:1020200010F062EF10F0A8C011F0A9C012F0AAC021
:1020300013F0ABC014F0000E156E000E166E800E7D
:10204000176EBF0E186E84EC0AF011C0A8F012C013
:10205000A9F013C0AAF014C0ABF062EF10F0A8C052
:1020600011F0A9C012F0AAC013F0ABC014F0000E1A
:10207000156E000E166E200E176E410E186E84EC53
:102080000AF011C0A8F012C0A9F013C0AAF014C041
:10209000ABF0A8C011F0A9C012F0AAC013F0ABC0F9
:1020A00014F063EC13F01150326E32C011F0126A6A
:1020B000000E146E0A0E136E22EC16F01150300F43
:1020C000A8EC17F0332A3304316E0001AC51315CB7
:1020D000D8A06DEF10F06FEF10F02FEF10F012009E
:1020E000000E1E6E4B0E1F6E000E206E000E216E37
:1020F00019EC11F096928492F28CF28EAD0E196E5C
:10210000000E1A6EA6EC18F00009D8B48AEF10F091
:102110008CEF10F07EEF10F01D0E216E100E226E6F
:10212000B1EC18F0360E1C6E100E1D6E04EC18F09B
:102130000001AD51A8EC17F0010E216E100E226EB9
:10214000B1EC18F0010E56EC15F0460E216E100E93
:10215000226EB1EC18F00C0E56EC15F0460E216E06
:10216000100E226EB1EC18F07B0E56EC15F0460EF8
:10217000216E100E226EB1EC18F0550E76EC17F0B1
:10218000460E216E100E226EB1EC18F0FF0ECCEC54
:1021900016F0460E216E100E226EB1EC18F0F00E05
:1021A000296EFF0E2A6EFF0E2B6EFF0E2C6E99EC21
:1021B0000CF0460E216E100E226EB1EC18F0430E9C
:1021C000296E7F0E2A6E620E2B6E010E2C6E99EC1C
:1021D0000CF0460E216E100E226EB1EC18F0980E27
:1021E0000001A86F6E0EA96F4C0EAA6F410EAB6F67
:1021F000020EAC6FC3EC0FF0460E216E100E226E75
:10220000B1EC18F0660E0001A86F660EA96FE60E1D
:10221000AA6FC00EAB6F050EAC6FC3EC0FF0460E8D
:10222000216E100E226EB1EC18F07EEF10F037EF39
:1022300000F04A0E116E000E126E350E136E000E77
:10224000146E100E156E4FEC18F0450E116E000E48
:10225000126E600E136E000E146E400E156E4FEC73
:1022600018F0000E346E000E116E1B0E126EB70EBB
:10227000136E000E146E1EC022F01FC023F020C08B
:1022800024F021C025F0040ED890223623362436BF
:102290002536E82E44EF11F022C015F023C016F0C9
:1022A00024C017F025C018F07AEC16F0FF0E1124A8
:1022B000266EFF0E1220276E27BE63EF11F061EF2E
:1022C00011F067EF11F0000E276E000E266E27BE8C
:1022D00070EF11F02704D8A070EF11F072EF11F039
:1022E000AFEF11F0000E116E1B0E126EB70E136ED3
:1022F000000E146E1EC022F01FC023F020C024F078
:1023000021C025F0060ED8902236233624362536F5
:10231000E82E83EF11F022C015F023C016F024C080
:1023200017F025C018F07AEC16F0FF0E1124266E77
:10233000FF0E1220276E27BEA4EF11F02704D8A0AD
:10234000A4EF11F0A6EF11F0A9EF11F0000E276E27
:10235000266826C0AFFF200EAC6EB3EF11F026C08A
:10236000AFFF240EAC6E900EAB6E9D8A1200000E75
:10237000186EF2AEBEEF11F0C0EF11F0C3EF11F026
:10238000010E186EF29E20EE04F01150D926125064
:10239000DA2210EE03F01150E1261250E222DE5054
:1023A000E618D8A4D6EF11F0D8EF11F000EF12F034
:1023B00020EE03F01150D9261250DA22DF50156EAC
:1023C00011C0D9FF12C0DAFFDECF16F0DDCF17F053
:1023D00015501624D96E000E1720DA6E13C0E1FFD7
:1023E00014C0E2FFDFCFE7FF1850D8B4FAEF11F0C6
:1023F000FCEF11F0FDEF11F0F28E000E4AEF12F03B
:1024000020EE03F01150D9261250DA22DF50156E5B
:1024100011C0D9FF12C0DAFFDECF16F0DDCF17F002
:1024200015501624D96E000E1720DA6E13C0E1FF86
:1024300014C0E2FFDFCFE7FF20EE03F01150D926F2
:102440001250DA22DF2A20EE02F01150D926125063
:10245000DA2210EE03F01150E1261250E222DE5093
:10246000E618D8A436EF12F038EF12F040EF12F071
:1024700020EE03F01150D9261250DA22000EDF6E42
:102480001850D8B446EF12F048EF12F049EF12F0AE
:10249000F28E010E1200000E086EF2AE52EF12F034
:1024A00054EF12F057EF12F0010E086EF29E20EE7C
:1024B00004F00150D9260250DA2210EE03F0015048
:1024C000E1260250E222DE50E618D8A46AEF12F0AC
:1024D0006CEF12F093EF12F020EE03F00150D926CA
:1024E0000250DA22DF50056E01C0D9FF02C0DAFFC8
:1024F000DECF06F0DDCF07F005500624D96E000EC2
:102500000720DA6E03C0E1FF04C0E2FFDFCFE7FF80
:102510000850D8B48EEF12F090EF12F0DCEF12F00A
:10252000F28EDCEF12F020EE03F00150D9260250BB
:10253000DA22DF50056E01C0D9FF02C0DAFFDECF1C
:1025400006F0DDCF07F005500624D96E000E0720F7
:10255000DA6E03C0E1FF04C0E2FFDFCFE7FF20EE49
:1025600003F00150D9260250DA22DF2A20EE02F0D1
:102570000150D9260250DA2210EE03F00150E12674
:102580000250E222DE50E618D8A4C9EF12F0CBEFD9
:1025900012F0D3EF12F020EE03F00150D9260250D2
:1025A000DA22000EDF6E0850D8B4D9EF12F0DBEF5C
:1025B00012F0DCEF12F0F28E1200000E246E22BE3A
:1025C000E6EF12F0E4EF12F0F0EF12F0221E211EFF
:1025D000201E1F6C000E202221222222010E246EBA
:1025E0001EBEF7EF12F0F5EF12F001EF13F01E1E12
:1025F0001D1E1C1E1B6C000E1C221D221E22010E05
:10260000241A000E256E000E266E000E276E000E98
:10261000286E1F50201021102210D8B412EF13F092
:1026200014EF13F04AEF13F0010E236E1EEF13F0B8
:10263000D8901F36203621362236232A22AE23EFA9
:1026400013F025EF13F018EF13F0D8902536263647
:10265000273628361F501B5C20501C5821501D580F
:1026600022501E58D8A037EF13F039EF13F042EF85
:1026700013F01F501B5E20501C5A21501D5A22502F
:102680001E5A2580D8902232213220321F32232E2A
:1026900025EF13F02450D8B450EF13F052EF13F09D
:1026A0005AEF13F0281E271E261E256C000E262228
:1026B0002722282225C01BF026C01CF027C01DF0B1
:1026C00028C01EF01200133414341A6E1A50D8A405
:1026D0006CEF13F06EEF13F078EF13F0000E116E45
:1026E000000E126E000E136E000E146EE5EF13F066
:1026F00011C015F012C016F013C017F014C018F076
:10270000200E88EF13F0D890183217321632153297
:10271000E82E83EF13F01550196E138EFF0E11166D
:10272000FF0E1216FF0E1316000E1416960E1A5EEA
:102730001ABE9FEF13F09DEF13F0B5EF13F01A5090
:10274000800A970FD8B0A7EF13F0A9EF13F0ABEF03
:1027500013F06EEF13F0D89014321332123211329C
:102760001A3EABEF13F0CDEF13F01F0E1A64BBEF60
:1027700013F0BDEF13F0C5EF13F06EEF13F0D89028
:1027800011361236133614361A061A50D8A4CBEF67
:1027900013F0CDEF13F0BFEF13F01950D8B4D3EF0F
:1027A00013F0D5EF13F0DDEF13F0141E131E121EFD
:1027B000116C000E12221322142211C011F012C04B
:1027C00012F013C013F014C014F01200000E196EB2
:1027D000F2AEEDEF13F0EFEF13F0F2EF13F0010EA6
:1027E000196EF29E20EE03F01150D9261250DA2213
:1027F000DF50D8A4FEEF13F000EF14F026EF14F032
:1028000020EE04F01150D9261250DA22DF50136E58
:10281000146AFF0E156EFF0E166E20EE02F01150B8
:10282000D9261250DA22DF50176E186A1550172673
:10283000165018221350171809E114501818D8B45C
:1028400024EF14F026EF14F04CEF14F020EE04F017
:102850001150D9261250DA22DF50136E146AFF0E7F
:10286000156EFF0E166E20EE03F01150D926125091
:10287000DA22DF50176E186A1550172616501822E4
:102880001350171807E114501818D8A44AEF14F081
:102890004CEF14F058EF14F01950D8B452EF14F074
:1028A00054EF14F055EF14F0F28E010E62EF14F0B5
:1028B0001950D8B45EEF14F060EF14F061EF14F02B
:1028C000F28E000E1200000E096EF2AE6AEF14F0E6
:1028D0006CEF14F06FEF14F0010E096EF29E20EE13
:1028E00003F00150D9260250DA22DF50D8A47BEF42
:1028F00014F07DEF14F0A3EF14F020EE04F001507B
:10290000D9260250DA22DF50036E046AFF0E056EEC
:10291000FF0E066E20EE02F00150D9260250DA2298
:10292000DF50076E086A055007260650082203503C
:10293000071809E104500818D8B4A1EF14F0A3EF68
:1029400014F0C9EF14F020EE04F00150D926025023
:10295000DA22DF50036E046AFF0E056EFF0E066E6C
:1029600020EE03F00150D9260250DA22DF50076E24
:10297000086A05500726065008220350071807E189
:1029800004500818D8A4C7EF14F0C9EF14F0D5EF1D
:1029900014F00950D8B4CFEF14F0D1EF14F0D2EF07
:1029A00014F0F28E010EDFEF14F00950D8B4DBEF13
:1029B00014F0DDEF14F0DEEF14F0F28E000E1200D2
:1029C000000E1A6E14BEE9EF14F0E7EF14F0F3EF07
:1029D00014F0141E131E121E116C000E122213226C
:1029E0001422010E1A6E18BEFAEF14F0F8EF14F06C
:1029F00002EF15F0181E171E161E156C000E16227B
:102A0000172218221550161017101810D8B40BEFF3
:102A100015F00DEF15F03DEF15F0010E196E17EFE3
:102A200015F0D8901536163617361836192A18AEFE
:102A30001CEF15F01EEF15F011EF15F01550115C9D
:102A4000165012581750135818501458D8A02BEF7E
:102A500015F02DEF15F035EF15F01550115E1650ED
:102A6000125A1750135A1850145AD8901832173255
:102A700016321532192E1EEF15F01A50D8B443EF46
:102A800015F045EF15F04DEF15F0141E131E121E34
:102A9000116C000E12221322142211C011F012C068
:102AA00012F013C013F014C014F012001F6E010EC8
:102AB000206E6AEF15F00A0E2002F350206E640EAD
:102AC0002018D8A466EF15F068EF15F06AEF15F03E
:102AD00073EF15F01F50205CD8A071EF15F073EF65
:102AE00015F05BEF15F020500A0DF3CF13F0F4CF83
:102AF00014F01FC011F0126A22EC16F011C017F08A
:102B000012C018F020C019F01A6AC0EC15F0175066
:102B10001810D8A48EEF15F090EF15F0B7EF15F060
:102B200020C017F0186A000E1A6E0A0E196EC0EC5B
:102B300015F01750206EB7EF15F020500A0DF3CFA7
:102B400013F0F4CF14F01FC011F0126A22EC16F04B
:102B500011C017F012C018F020C019F01A6AC0ECAA
:102B600015F01750300FA8EC17F090EF15F020502B
:102B7000D8A4BDEF15F0BFEF15F09DEF15F01200D2
:102B8000000E1C6E1ABEC9EF15F0C7EF15F0CFEF9F
:102B900015F0196C1A1ED8B01A2A010E1C6E18BE38
:102BA000D6EF15F0D4EF15F0DCEF15F0176C181E0A
:102BB000D8B0182A010E1C1A000E1E6E000E1D6ED3
:102BC00019501A10D8B4E7EF15F0E9EF15F011EF2E
:102BD00016F0010E1B6EF1EF15F0D89019361A366B
:102BE0001B2A1AAEF6EF15F0F8EF15F0EDEF15F021
:102BF000D8901D361E361950175C1A501858D8A098
:102C000004EF16F006EF16F00BEF16F01950175EF2
:102C10001A50185A1D80D8901A3219321B2EF8EF0C
:102C200015F01C50D8B417EF16F019EF16F01DEF81
:102C300016F01D6C1E1ED8B01E2A1DC017F01EC037
:102C400018F01200000E166E12BE2BEF16F029EFD0
:102C500016F031EF16F0116C121ED8B0122A010EC8
:102C6000166E14BE38EF16F036EF16F03CEF16F085
:102C7000136C141ED8B0142A13501410D8B443EF98
:102C800016F045EF16F069EF16F0010E156E4DEFD8
:102C900016F0D89013361436152A14AE52EF16F0EB
:102CA00054EF16F049EF16F01350115C14501258FF
:102CB000D8A05DEF16F05FEF16F063EF16F013503B
:102CC000115E1450125AD89014321332152E54EF4C
:102CD00016F01650D8B46FEF16F071EF16F075EFCE
:102CE00016F0116C121ED8B0122A11C011F012C0C9
:102CF00012F01200000E196E000E1A6E000E1B6EFE
:102D0000000E1C6E1550161017101810D8B48BEF4B
:102D100016F08DEF16F0C3EF16F0010E1D6E97EF53
:102D200016F0D89015361636173618361D2A18AEF6
:102D30009CEF16F09EEF16F091EF16F0D890193632
:102D40001A361B361C361550115C16501258175087
:102D5000135818501458D8A0B0EF16F0B2EF16F070
:102D6000BBEF16F01550115E1650125A1750135A39
:102D70001850145A1980D89018321732163215325A
:102D80001D2E9EEF16F019C011F01AC012F01BC0D4
:102D900013F01CC014F012001D6E300EA8EC17F0DA
:102DA000780EA8EC17F01DC01CF01C3A0F0E1C1674
:102DB0000F0E1C160A0E1C60E0EF16F0E2EF16F084
:102DC000EAEF16F01D380F0B0F0B300FA8EC17F0C1
:102DD000F0EF16F01D380F0B0F0B370FA8EC17F0A4
:102DE0001DC01CF00F0E1C160A0E1C60FAEF16F028
:102DF000FCEF16F003EF17F01D50300F0F0BA8EC8F
:102E000017F008EF17F01D500F0B370FA8EC17F055
:102E10001200000E056EF2AE10EF17F012EF17F071
:102E200015EF17F0010E056EF29E20EE04F0015032
:102E3000D9260250DA2210EE03F00150E1260250AA
:102E4000E222DE50E618D8A428EF17F02AEF17F098
:102E500036EF17F00550D8B430EF17F032EF17F017
:102E600033EF17F0F28E010E40EF17F00550D8B493
:102E70003CEF17F03EEF17F03FEF17F0F28E000E29
:102E80001200000E196E000E1A6E000E1B6E000E60
:102E90001C6E11A04EEF17F050EF17F058EF17F01F
:102EA0001550192616501A2217501B2218501C2292
:102EB000D8901536163617361836D8901432133285
:102EC000123211321150121013101410D8A46BEFDB
:102ED00017F06DEF17F049EF17F019C011F01AC095
:102EE00012F01BC013F01CC014F012001E6E300E46
:102EF000A8EC17F0620EA8EC17F0000E1F6E1F5022
:102F000007081C6E010E1D6E1C2A89EF17F0D89061
:102F10001D361C2E87EF17F01D501E140009D8B463
:102F200094EF17F096EF17F09BEF17F0310EA8EC27
:102F300017F09EEF17F0300EA8EC17F01F2A070EBF
:102F40001F64A5EF17F0A7EF17F07FEF17F012003F
:102F50001B6E3450D8A4AFEF17F0B1EF17F0BFEFEE
:102F600017F0ACA2B6EF17F0B8EF17F0B1EF17F00B
:102F70001BC0ADFF010E346E9D88D5EF17F0450ED6
:102F8000116E000E126EE6EC13F00009D8A4CBEF20
:102F900017F0CDEF17F0BFEF17F0450E116E000ED2
:102FA000126E1BC013F053EC0EF012000B6E345077
:102FB000D8A4DDEF17F0DFEF17F0EDEF17F0ACA2BC
:102FC000E4EF17F0E6EF17F0DFEF17F00BC0ADFFFF
:102FD000010E346E9D8803EF18F0450E016E000E51
:102FE000026E63EC14F00009D8A4F9EF17F0FBEFC0
:102FF00017F0EDEF17F0450E016E000E026E0BC0DC
:1030000003F00CEC0FF01200000E206E17EF18F01A
:1030100020501C241E6E000E1D201F6E1EC0F6FFC9
:103020001FC0F7FF0800F550A8EC17F0202A205029
:103030001C241E6E000E1D201F6E1EC0F6FF1FC03A
:10304000F7FF0800F5500009D8A429EF18F02BEF7E
:1030500018F008EF18F01200000E2D1A000E2E1AAC
:10306000000E2F1A800E301A29C011F02AC012F05B
:103070002BC013F02CC014F02DC015F02EC016F08C
:103080002FC017F030C018F024EC08F011C029F060
:1030900012C02AF013C02BF014C02CF0120011C083
:1030A000D9FF12C0DAFF13C0DEFF14C0DDFF20EE2F
:1030B00002F01150D9261250DA2215C0DFFF20EE9F
:1030C00003F01150D9261250DA22000EDF6E20EEE6
:1030D00004F01150D9261250DA22000EDF6E1200D1
:1030E000450E016E000E026E09EC17F00009D8B40F
:1030F0007CEF18F07EEF18F083EF18F0000E346EBE
:103100009D9890EF18F0450E016E000E026E0C0EA9
:10311000036E000E046E4BEC12F00C50D6EC17F060
:10312000120000EE60F0400EEE6AE806FDE100EEEF
:1031300034F01B0EEE6AE806FDE14F904F92000E50
:10314000F86E100EF76E000170EF10F04A0E116E5F
:10315000000E126E19C013F01AC014F0B7EC11F083
:10316000120021C01CF022C01DF004EC18F0C3ECCA
:1031700018F012004A0E016E000E026EAECF03F080
:103180000CEC0FF012000A0EA8EC17F00D0EA8ECD4
:0431900017F0120022
:020000040020DA
:08000000FFFFFFFFFFFFFFFF00
:020000040030CA
:0E000000FF021F1FFF8185FFFFC0FFE0FF40D2
:00000001FF
